:020000040000FA
:060000000A128A110C280F
:10000800FE00030EF0000A08F1000A168A11AF2D4F
:100018000A128A110F288317BC30FD000830FE0031
:100028000230FF00A63084000A168A115F220A12E5
:100038008A118313ED30FD001130FE00B730FF0048
:10004800E33084000A168A115F220A128A115E3090
:10005800FD001230FE000730FF00513084000A1600
:100068008A115F220A128A11831790308400A63001
:100078000A168A119D210A128A118313A03084005E
:10008800E3300A168A119D210A128A113930840038
:1000980051300A168A119D210A128A11FA01FB01B0
:1000A80083010A128A1158280A168A11B2240A12E0
:1000B8008A11BC308400A63083120313B5000408EB
:1000C800B6000C30B7003508840083170008B80064
:1000D800B50A3608840038088000B60AB70B6728C6
:1000E80083160313670883160317CC0083160313BC
:1000F800680883160317CD0083160313690883164F
:100108000317CE00CF014A30F7009130F8000030D5
:100118000A168A11EE230A128A11CC3083120313AD
:10012800A4000130A500A6010A168A11E7260A12C2
:100138008A110A30F6000030F7000A168A113622B2
:100148000A128A117308F9007208F8000A168A114F
:1001580069250A128A11760883160317D0006430BD
:100168005002031CB828B928BB286330D0000130DE
:100178000A128A15ED200A128A1183120313D0007D
:10018800B83083160317C8000B30C900FF30C80702
:100198000318C90AFF30C907480A031DD728490AA6
:1001A800031DD728D828CA283F30831203135006C6
:1001B8000319DF28E028E2285008CF003E30500617
:1001C800031DE728E82804295630F2009130F3008F
:1001D800CC300A168A11F7220A128A11CC308312FF
:1001E8000313A4000130A5008316031750088312D7
:1001F8000313A6000A168A11E7260A128A116E2C22
:100208003D305006031D09290A294929063083165D
:1002180003174F02031811291229492983120313BE
:100228005D03031D182919294929831603174F0847
:1002380083120313B5003507BC3E840083170008FA
:10024800F200840A00088403F300CC300A168A11ED
:10025800F7220A128A11013083120313B5003508F8
:1002680083160317CF07CC3083120313A400013081
:10027800A50083160317500883120313A6000A1655
:100288008A11E7260A128A116E2C3B308312031357
:100298005006031D502951297829831603174F0842
:1002A8000319572958297829831203135D03031D5D
:1002B8005E295F297829013083160317CF024F087A
:1002C80083120313B5003507BC3E8400831700086A
:1002D800F200840A00088403F300CC300A168A115D
:1002E800F7220A128A11372937308312031350066E
:1002F80003197F29802986292F305006031D852957
:100308008629BC295D03031D8A298B29BC290A1665
:100318008A1114220A128A117530F6009030F700FB
:100328008030F8000A168A11BF230A128A11F201D6
:10033800C6300A168A11B6220A128A11F2010F3043
:100348000A168A11B6220A128A11A53083120313DB
:10035800B500B50BAD29B029023083120313DD00B7
:10036800103083160317D1008312031312156E2C55
:1003780011305006031DC129C2294F2A03305D06DA
:10038800031DC729C8294F2A322A0430DD006030EE
:1003980083160317D1000A168A1114220A128A1129
:1003A8006E2C6530A4009130A50083160317500801
:1003B80083120313A6000A168A11E7260A128A1165
:1003C800053083120313DD000A168A1114220A125B
:1003D8008A113F30F6009130F7008030F8000A1695
:1003E8008A11BF230A128A11F2010C300A168A11E7
:1003F800B6220A128A116E2C0A168A1114220A12BF
:100408008A11063083120313DD00B03083160317F8
:10041800D100F2010C300A168A11B6220A128A118A
:100428006E2C0A168A1114220A128A1107308312B6
:100438000313DD00703083160317D100B829083084
:10044800DD000A168A1114220A128A11F2010C30F0
:100458000A168A11B6220A128A116E2C83160317FD
:100468004A0883120313B500B6013608003A031987
:100478003E2A6E2C3508003A0319C929013A031996
:10048800D529033A0319002A013A0319152A073A0C
:100498000319232A6E2C22305006031D542A552A8C
:1004A800652A04305D06031D5A2A5B2A652A0A1646
:1004B8008A1114220A128A11033083120313DD00F1
:1004C8006E2C22305006031D6A2A6B2A722A0530C8
:1004D8005D06031D702A712A722A5B2A2230500693
:1004E800031D772A782A7F2A06305D06031D7D2A98
:1004F8007E2A7F2A5B2A22305006031D842A852AF9
:100508008C2A08305D06031D8A2A8B2A8C2A5B2ACE
:1005180022305006031D912A922AA92A07305D0627
:10052800031D972A982AA92A0A168A1114220A1240
:100538008A11033083120313DD00F2010C300A160E
:100548008A11B6220A128A116E2C22305006031D17
:10055800AE2AAF2AC32A03305D06031DB42AB52A82
:10056800C32A0A168A1114220A128A118312031343
:10057800DD01DD0A103083160317D1006E2C6E2CB6
:1005880083160317500883120313A500CC300A12F0
:100598008A1581200A128A11922CDD01DD0A1211B6
:1005A800F2010C300A168A11B6220A128A11A530F5
:1005B80083120313B500B50BDF2AE22A922C03300D
:1005C800DD00503083160317D10083120313121174
:1005D800F2010C300A168A11B6220A128A11A530C5
:1005E80083120313B500B50BF72AFA2A9D28831640
:1005F8000317510883120313A50050080A128A151D
:1006080053230A128A1183120313B500B601360860
:10061800003A0319102B922C3508303A0319D12AC5
:10062800703A0319E32A922C831603175108831290
:100638000313A50050080A128A113A270A128A11D0
:1006480083160317CA00922C8316031751088312C6
:100658000313A5005D08A60050080A128A15B424E1
:100668000A128A1183120313CE004E08031D3D2B74
:100678003E2B922C0030F6009030F7008030F800C6
:100688000A168A11BF230A128A1133308312031300
:10069800B700BB30B600DF30B500B50B512BB60B39
:1006A800512BB70B512B0A168A1114220A128A11E0
:1006B800033083120313DD00922C831603175108AD
:1006C80083120313A5005D08A60050080A128A15B4
:1006D80025260A128A1183120313CD0009304D060C
:1006E800031D772B782BAE2B0A168A1114220A12B7
:1006F8008A11831203131211E830F6009030F700C4
:100708008230F8000A168A11BF230A128A114D3066
:1007180083120313B7001930B6004F30B500B50B7C
:10072800932BB60B932BB70B932B0A168A11142213
:100738000A128A11033083120313DD007030831606
:100748000317D100F2010C300A168A11B6220A12D8
:100758008A11922C0A304D06031DB32BB42B922C10
:100768000A168A1114220A128A118312031312110B
:10077800F2010C300A168A11B6220A128A11653063
:10078800F6009030F7008230F8000A168A11BF236D
:100798000A128A111330F6009130F700C330F800BE
:1007A8000A168A11BF230A128A114D3083120313C5
:1007B800B7001930B6004F30B500B50BE12BB60BBA
:1007C800E12BB70BE12B0A168A1114220A128A119F
:1007D800033083120313DD00703083160317D10032
:1007E800922C0A168A1114220A128A119030831642
:1007F8000317D10051080A168A1125220A128A11F4
:1008080083120313CC00A0304C06031D0C2C0D2CB6
:10081800922CCE30F6009030F7008330F8000A169C
:100828008A11BF230A128A11DB30F6009030F700D4
:10083800C330F8000A168A11BF230A128A110D3034
:1008480083120313B700AF30B600B530B500B50B4F
:100858002B2CB60B2B2CB70B2B2C322C572B5D08C3
:10086800A50050080A128A119A240A128A118316BE
:100878000317CB004B03031D422C432C922C23302F
:10088800F6009030F7008030F8000A168A11BF236E
:100898000A128A113430F6009030F700C030F800A0
:1008A8000A168A11BF230A128A114D3083120313C4
:1008B800B7001930B6004F30B500B50B612CB60B38
:1008C800612CB70B612C572B0A128A1520220A12A9
:1008D8008A11572B831203135D08B500B601360839
:1008E800003A0319782C922C3508013A0319C42AC6
:1008F800033A0319FB2A013A0319182B073A03197B
:10090800282B013A0319F52B033A0319682C013AED
:100918000319612B0F3A0319332C922C20308316BC
:100928000317D1009D280A128A110C288312031379
:10093800AE001D30F6009130F7008430F8000A163A
:100948008A11BF230A128A11831203134808031D50
:10095800AE2CAF2CF82C0A128A1574210A128A11AF
:100968000F3083160313550583120313A6000A30AC
:10097800F2008316031354080F390A168A118322CA
:100988000A128A11831203132607B9000F3083163F
:100998000313570583120313A6000A30F2008316C7
:1009A800031356080F390A168A1183220A128A116C
:1009B800831203132607BA000F3083160313590551
:1009C80083120313A6000A30F20083160313580893
:1009D8000F390A168A1183220A128A118312031305
:1009E8002607BB00C801C80A03305906031DFD2CA1
:1009F800FE2CFF2CD90137302E06031D042D052DA2
:100A0800132D4803031D092D0A2D132D0130A600AF
:100A18005908393E8400260883138007152E3D3077
:100A28002E06031D182D192D292D4803031D1D2DD4
:100A38001E2D292D033059020318232D242D292D6D
:100A48000130A6002608D907152E2F302E06031DC3
:100A58002E2D2F2D412D4803031D332D342D412DCF
:100A6800033059020318392D3A2D412D5908393EC2
:100A78008400013083138002152E3B302E06031D9F
:100A8800462D472D152E4803031D4B2D4C2D152E95
:100A98000A30F2000030F3003908A600A701260842
:100AA800F4002708F5000A168A113F270A128A114E
:100AB800720883120313A8007308A9000A30F20011
:100AC8000030F3003908AA00AB012A08F4002B080B
:100AD800F5000A128A1518200A128A117208831260
:100AE8000313AC0003300310AC0DFF3E031D772D3C
:100AF80003102C0D2804AD003C08C0392D04BC009F
:100B08003C08F30002300A168A1198220A128A1148
:100B18000A30F2000030F300831203133A08A600EB
:100B2800A7012608F4002708F5000A168A113F27AE
:100B38000A128A11720883120313A8007308A90005
:100B48000A30F2000030F3003A08AA00AB012A0884
:100B5800F4002B08F5000A128A1518200A128A11C7
:100B6800720883120313AC0003300310AC0DFF3E70
:100B7800031DB92D03102C0D2804AD003D08803944
:100B88002D04BD003D08F30001300A168A11982291
:100B98000A128A110A30F2000030F300831203139C
:100BA8003B08A600A7012608F4002708F5000A1646
:100BB8008A113F270A128A11720883120313A800A8
:100BC8007308A9000A30F2000030F3003B08AA00BD
:100BD800AB012A08F4002B08F5000A128A15182020
:100BE8000A128A11720883120313AC00033003102F
:100BF800AC0DFF3E031DFB2D03102C0D2804AD008A
:100C08003E08C0392D04BE003E08F30000300A1625
:100C18008A1198220A128A11023083120313C8001B
:100C2800152E02304806031D1A2E1B2E222E0A16D8
:100C38008A1114220A128A110130392F1830390208
:100C4800031C272E282E292EB9013C303A02031CFA
:100C58002E2E2F2E302EBA013C303B02031C352E8F
:100C6800362E372EBB010130A6002608C7070A30EA
:100C78004706031D402E412E392FC7015808031976
:100C8800462E482E0130492E0030D800C430F900D5
:100C98000A30F2000030F3003908A600A701260840
:100CA800F4002708F5000A128A1518200A128A117A
:100CB8007208303E0A168A116E220A128A11C5304D
:100CC800F9000A30F2000030F300831203133908E8
:100CD800A600A7012608F4002708F5000A168A11BD
:100CE8003F270A128A117208303E0A168A116E22AC
:100CF8000A128A11C630F9003A300A168A116E2291
:100D08000A128A11C730F9000A30F2000030F300E5
:100D1800831203133A08A600A7012608F40027083F
:100D2800F5000A128A1518200A128A117208303E34
:100D38000A168A116E220A128A11C830F9000A307E
:100D4800F2000030F300831203133A08A600A7014B
:100D58002608F4002708F5000A168A113F270A1208
:100D68008A117208303E0A168A116E220A128A11F6
:100D7800C930F9003A300A168A116E220A128A110D
:100D8800CA30F9000A30F2000030F300831203136E
:100D98003B08A600A7012608F4002708F5000A1258
:100DA8008A1518200A128A117208303E0A168A110A
:100DB8006E220A128A11CB30F9000A30F200003094
:100DC800F300831203133B08A600A7012608F400CA
:100DD8002708F5000A168A113F270A128A11720895
:100DE800303E0A168A116E220A128A1183120313E0
:100DF80058080319002F012F392F262F3130F600FC
:100E08009030F700C430F8000A168A11BF230A127E
:100E18008A11392F3130F6009030F700C730F800CA
:100E28000A168A11BF230A128A11392F3130F600A7
:100E38009030F700CA30F8000A168A11BF230A1248
:100E48008A11392F5908A600A7012708003A031963
:100E58002E2F392F2608003A0319022F013A0319B9
:100E68000E2F033A03191A2F392F08008312031380
:100E7800B4002A308400B230A6000408A7000A3063
:100E8800A8002608840083170008A900A60A2708D6
:100E98008400831329088000A70AA80B452F503027
:100EA8002506031D582F592F612F0A168A1114225F
:100EB8000A128A1183120313C50137303406031D41
:100EC800662F672F742F450803196B2F6C2F742F0B
:100ED8000130C5020A168A1114220A128A11852FB6
:100EE8002F303406031D792F7A2F852F04304502C1
:100EF80003187F2F802F852F0130A6002608C507ED
:100F08006E2F043083120313450203188C2F8D2F84
:100F1800C12F8030F9002A300A168A116E220A126F
:100F28008A11831203134508A60026072A3E840067
:100F380083130008F600840A00088403F70082304F
:100F4800F8000A168A11BF230A128A1183120313A2
:100F58004508A6002607023E2A3E8400831300089F
:100F6800F600840A00088403F700C230F8000A1665
:100F78008A11BF230A128A11FA2F04304506031D6D
:100F8800C62FC72FFA2FC030F9002A300A168A1147
:100F98006E220A128A11831203134508A600260737
:100FA800FE3E2A3E840083130008F600840A0008E7
:100FB8008403F7008230F8000A168A11BF230A1248
:100FC8008A11831203134508A60026072A3E8400C7
:100FD80083130008F600840A00088403F700C2306F
:100FE800F8000A168A11BF230A128A118312031302
:040FF80045080800A0
:1010040068349134593491345C3491345F3491347C
:10101400623491346B3491342F34913409349134E3
:10102400C1349034F434903426349134831203134D
:10103400A101F31F1E281F282628F209F309F20A2A
:101044000319F30AA101A10AF51F29282A28332824
:10105400F409F509F40A0319F50A0130F6007608D3
:10106400A106A201A3017208730403193A283B28BC
:101074007228A001A00A492801300310F20DF30DD3
:10108400FF3E031D3F280130F6007608A007F31F3A
:101094004C284D283E2801300310A20DA30DFF3E1D
:1010A400031D4E2873087502031D5A287208740222
:1010B400031C5D285E2865287208F4027308031C6B
:1010C400F503F502221401300310F30CF20CFF3E79
:1010D400031D66280130A002031D712872284D28C3
:1010E40021080319762877287C28A209A309A20AD3
:1010F4000319A30A2308F3002208F200080083124C
:101104000313A8001230F6009030F7008030F80086
:101114000A168A11BF230A128A1583120313280898
:10112400F6000130F700CB30F8000A168A11BF230D
:101134000A128A155330F2009130F300831203131C
:1011440028080A168A114E240A128A157208730492
:10115400031DAD28AE28B12883120313A501CE3098
:10116400F9000A30F2000030F3008312031325085B
:10117400A600A7012608F4002708F5000A128A151C
:1011840018200A128A157208303E0A168A116E2235
:101194000A128A15CF30F9000A30F2000030F30049
:1011A400831203132508A600A7012608F4002708C4
:1011B400F5000A168A113F270A128A157208303E72
:1011C4000A168A116E220A128A150A168A113E26F6
:1011D4000A128A1508008312031306083F39F20025
:1011E4003F3072060319F728F82804297B08031DE9
:1011F400FC28FD280429FB01FB0AD501D60172084D
:10120400FA0072293F307206031D09290A291F2991
:101214007B0803190E290F291F29FB015608803A60
:10122400FF0080307F02031D192914305502031872
:101234001C291D2972297A0873297B08031923297B
:1012440024293A295608803AFF0080307F02031D82
:101254002D29153055020318302931293A29013036
:1012640083120313D5070318D60A0030D607722950
:101274007B0803193E293F2956291530831203138D
:1012840055065604031D4729482956293730720646
:10129400031D4D294E2956290130D5070318D60AB6
:1012A4000030D607113073297B0803195A295B29AA
:1012B400722915308312031355065604031D63293E
:1012C400642972292F307206031D69296A2972293B
:1012D4000130D5070318D60A0030D6072230732907
:1012E4003F30080002300A168A1169230A128A154F
:1012F40083120313BC0001300A168A1169230A12EF
:101304008A1583120313BD0000300A168A1169235B
:101314000A128A1583120313BE003C08F600043037
:101324000310F60CFF3E031D922976080339303E64
:1013340083160313D400831203133C080F39303E81
:1013440083160313D500831203133D08F6000430FB
:101354000310F60CFF3E031DAA2976080739303E18
:1013640083160313D600831203133D080F39303E4E
:1013740083160313D700831203133E08F6000430C8
:101384000310F60CFF3E031DC22976080739303ED0
:1013940083160313D800831203133E080F39303E1B
:1013A40083160313D900DA01831203133C08F600F1
:1013B40004300310F60CFF3E031DDB2976080339C5
:1013C400303E83160313AA00831203133C080F391B
:1013D400303E83160313AB00831203133D08F6005B
:1013E40004300310F60CFF3E031DF3297608073979
:1013F400303E83160313AC00831203133D080F39E8
:10140400303E83160313AD00831203133E08F60027
:1014140004300310F60CFF3E031D0B2A760807392F
:10142400303E83160313AE00831203133E080F39B4
:10143400303E83160313AF00B00108008312031378
:10144400AA01530A031D2A2A540A031D2A2A2B2AF5
:10145400352A5530F3009030F4000A168A111C2303
:101464000A128A15522B3830F3009130F4000A1610
:101474008A111C230A128A150A300A168A11D721E6
:101484000A128A150A300A168A11D7210A128A15F5
:101494000D300A168A11D7210A128A15422B0130FF
:1014A40083120313D1070318D20A0030D2074A0863
:1014B400031D5D2A5E2A612AAC01AD01772A0A3038
:1014C400F2000030F3005B08013EF4000030031822
:1014D4000130F5000A168A113F270A128A1573088B
:1014E40083120313AD007208AC000A30F20000301E
:1014F400F30051082C07F40052080318520A2D0770
:10150400F5000A168A113F270A128A1573088312F6
:101514000313AD007208AC00AE01AF010A30F20053
:10152400831203132C080A168A1183220A128A15BD
:10153400053E83120313AB002E08203E84002E08C0
:101544002B070A168A1194230A128A158313800022
:10155400013083120313AE070318AF0A0030AF073C
:101564002F08803AFF0080307F02031DBB2A0A3017
:101574002E02031CBE2ABF2A902A83120313510889
:10158400303E0A168A11D7210A128A1520300A160B
:101594008A11D7210A128A158312031320080A1606
:1015A4008A11D7210A128A158312031321080A16F5
:1015B4008A11D7210A128A153A300A168A11D721BC
:1015C4000A128A158312031322080A168A11D721D4
:1015D4000A128A158312031323080A168A11D721C3
:1015E4000A128A153A300A168A11D7210A128A1564
:1015F4008312031324080A168A11D7210A128A15A2
:101604008312031325080A168A11D7210A128A1590
:1016140020300A168A11D7210A128A15831203135D
:1016240026080A168A11D7210A128A15831203136F
:1016340027080A168A11D7210A128A1520300A1699
:101644008A11D7210A128A158312031328080A164D
:101654008A11D7210A128A158312031329080A163C
:101664008A11D7210A128A150A300A168A11D7213B
:101674000A128A150D300A168A11D7210A128A1500
:10168400831203135208803AF9005408803A79020D
:10169400031D4E2B53085102031C512B522B512A6C
:1016A400080083120313A90010302506031D5B2BC9
:1016B4005C2B6B2B0330D700C60183160313DF01A9
:1016C400E001E101E201FF3083120313A9000530B8
:1016D400DC0037302906031D702B712B8F2B04304F
:1016E40046020318762B772B8F2B4608DF3E8400A7
:1016F4003430831380004608C63EF9002A300A16A7
:101704008A116E220A128A15013083120313A6006D
:101714002608C6070530DC00AB2B2F302906031D35
:10172400942B952BAB2B0430460203189A2B9B2B3E
:10173400AB2B4608DF3E8400353083138000460817
:10174400C63EF9002A300A168A116E220A128A1538
:10175400862B04304606031DB02BB12BAB2CAA01FB
:101764002A08DB3E84002A080A168A1194230A12E6
:101774008A1583138000013083120313A600260800
:10178400AA0704302A02031CC82BC92BB22BDB3056
:10179400F2000430F3000030F400DF300A168A113E
:1017A400EC240A128A1572087304031DDA2BDB2B4E
:1017B400DD2B4030B32C013083120313D7025708BA
:1017C400031DE52BE62B4D2C3C30CB000A168A1169
:1017D40014220A128A154530F6009030F700803042
:1017E400F8000A168A11BF230A128A15FF30F60080
:1017F4009030F700C030F8000A168A11BF230A128D
:101804008A154F30F6009130F700CC30F8000A16F4
:101814008A11BF230A128A15432CC930F9000A30F1
:10182400F2000030F3004B08A600A7012608F400DC
:101834002708F5000A128A1518200A128A15720858
:10184400303E0A168A116E220A128A15CA30F9002D
:101854000A30F2000030F300831203134B08A60091
:10186400A7012608F4002708F5000A168A113F2765
:101874000A128A157208303E0A168A116E220A125A
:101884008A15831203134B08031D492C4A2C0F2C71
:101894000330D700AB2C0A168A1114220A128A15B7
:1018A400A330F6009030F7008030F8000A168A1151
:1018B400BF230A128A15C030F90083120313570894
:1018C400303E0A168A116E220A128A15B230F600C8
:1018D4009030F700C230F8000A168A11BF230A12AA
:1018E4008A15333083120313A800BB30A700DF30FE
:1018F400A600A60B7B2CA70B7B2CA80B7B2C0A1613
:101904008A1114220A128A157630F6009030F700F4
:101914008130F8000A168A11BF230A128A1583122D
:101924000313C6010530DC00F201C6300A168A1121
:10193400B6220A128A15F2010F300A168A11B6224B
:101944000A128A15A53083120313A600A60BA82C2D
:10195400AB2C831203135C08031DB12CB22CB32CE3
:101964003030080083120313AD00530A031DBE2C4C
:10197400540A031DBE2CBF2CC12C0030242E603011
:101984002506031DC62CC72CCA2CC9010530DA0054
:101994004A08031DCE2CCF2CD22CAB01AC01E82C71
:1019A4000A30F2000030F3005B08013EF40000301E
:1019B40003180130F5000A168A113F270A128A1506
:1019C400730883120313AC007208AB00AE01AF01BD
:1019D4000A30F200831203132B080A168A11832299
:1019E4000A128A15053E83120313DA002E08A03E5C
:1019F40084002E085A070A168A1194230A128A159B
:101A040083138000013083120313AE070318AF0A57
:101A14000030AF072F08803AFF0080307F02031D9B
:101A2400152D0A302E02031C182D192DEA2C3E30D8
:101A3400831203132D06031D202D212D392D04306F
:101A44002606031D262D272D392D0930490203189A
:101A54002C2D2D2D312D4908013EC900552D09305D
:101A64004906031D362D372D552DC901552D3D3001
:101A74002D06031D3E2D3F2D552D04302606031D36
:101A8400442D452D552D49080319492D4A2D4E2D18
:101A94004908FF3EC900552D4908031D522D532DF9
:101AA400552D0930C9000A30F2000030F30049080E
:101AB4002B07F4002C0803182C0AF5000A168A11C7
:101AC4003F270A128A15730883120313AC007208A5
:101AD400AB0022302D06031D702D712D772D04309F
:101AE4002606031D762D772D772D4530F60091308F
:101AF400F7008430F8000A168A11BF230A128A15E7
:101B0400C030F900831203134908303E0A168A11C3
:101B14006E220A128A15C330F900831603132008B3
:101B24000A168A116E220A128A15C430F900831625
:101B3400031321080A168A116E220A128A15C53067
:101B4400F9008316031322080A168A116E220A1258
:101B54008A15C630F9008316031323080A168A115E
:101B64006E220A128A15C730F9008316031324085B
:101B74000A168A116E220A128A15C830F9008316D1
:101B8400031325080A168A116E220A128A15C9300F
:101B9400F9008316031326080A168A116E220A1204
:101BA4008A15CA30F9008316031327080A168A1106
:101BB4006E220A128A15CB30F90083160313280803
:101BC4000A168A116E220A128A15CC30F90083167D
:101BD400031329080A168A116E220A128A15003084
:101BE40083120313AA000030A9000030A8000030BB
:101BF400A700013083120313A70700300318013034
:101C0400A807003003180130A90700300318013079
:101C1400AA072A08031D1D2E2908031D1D2E27307F
:101C24002802031D192E10302702031D192E031C30
:101C34001C2E1D2EFB2DF2010C300A168A11B62221
:101C44000A128A15080083120313B00070302506A7
:101C5400031D2D2E2E2E632E4408803AFF00803063
:101C64007F02031D372E0430430203183A2E3B2E05
:101C7400632E8312031341084204031D422E432E94
:101C8400632E8530F6009030F7008130F8000A1694
:101C94008A11BF230A128A15F201C6300A168A1164
:101CA400B6220A128A15F2010F300A168A11B622D8
:101CB4000A128A15A53083120313A700A70B602EFE
:101CC400632E3E30831203133006031D6A2E6B2EDF
:101CD400A32E4408803AFF0080307F02031D742E37
:101CE400043043020318772E782EA32E8312031395
:101CF40041084204031D7F2E802EA32E0330430689
:101D04004404031D862E872E892E3F30B0004308DD
:101D14002C3E84003430831380004308C63EF9000F
:101D24002A300A168A116E220A128A150130831289
:101D34000313C3070318C40A0030C4070530DC00CA
:101D4400D92E3D30831203133006031DAA2EAB2E69
:101D5400D92E4408803AFF0080307F02031DB42E40
:101D6400043043020318B72EB82ED92E831203135E
:101D740041084204031DBF2EC02ED92E0330430652
:101D84004404031DC62EC72EC92E3F30B00043089D
:101D94002C3E84003530831380004308C63EF9008E
:101DA4002A300A168A116E220A128A15982E0430D5
:101DB4008312031343064404031DE12EE22EF52E81
:101DC40041084204031DE72EE82EF52E0A168A1157
:101DD40014220A128A15803083120313A5000130DD
:101DE400C1000030C2003F303006031DFA2EFB2E26
:101DF4003D2F80302506031D002F012F3D2F043079
:101E040043064404031D072F082F3D2F4008803A42
:101E1400FF0080307F02031D112F04303F0203189E
:101E2400142F152F3D2F8312031341034204031D66
:101E34001C2F1D2F3D2F9430F6009030F700813079
:101E4400F8000A168A11BF230A128A15F201C63055
:101E54000A168A11B6220A128A15F2010F300A16DE
:101E64008A11B6220A128A15A53083120313A70019
:101E7400A70B3A2F3D2F3E30831203133006031D68
:101E8400442F452F7B2F043043064404031D4B2F5E
:101E94004C2F7B2F4008803AFF0080307F02031DC7
:101EA400552F04303F020318582F592F7B2F8312CC
:101EB400031341034204031D602F612F7B2F3F084E
:101EC400283E84003430831380003F08C63EF90066
:101ED4002A300A168A116E220A128A1501308312D8
:101EE4000313BF070318C00A0030C0070530DC0025
:101EF400AF2F3D30831203133006031D822F832F2F
:101F0400AF2F043043064404031D892F8A2FAF2FBB
:101F14004008803AFF0080307F02031D932F043075
:101F24003F020318962F972FAF2F831203134103F9
:101F34004204031D9E2F9F2FAF2F3F08283E84008D
:101F44003530831380003F08C63EF9002A300A1654
:101F54008A116E220A128A15702F04308312031319
:101F64003F064004031DB72FB82FFF2F043043064C
:101F74004404031DBE2FBF2FFF2FF2010C300A169D
:101F84008A11B6220A128A152830F2000430F300AE
:101F94000030F4002C300A168A11EC240A128A1537
:101FA40072087304031DD72FD82FF12F0A168A1134
:101FB40014220A128A1583120313C301C401BF0138
:101FC400C001C101C2012C30F7000030F80000301C
:101FD4000A168A11EE230A128A150930FF2F0A16EF
:101FE4008A1114220A128A1583120313C301C4012D
:101FF400BF01C001C101C2010A3008004E344F3490
:1020040020344C344F344734533420344134563420
:10201400413449344C34413442344C344534003432
:1020240020342034543449344D344534203420345D
:102034002034203420344534203420345334503474
:10204400003420342034543449344D34453420345D
:102054004334483441344E344734453444342034D2
:10206400203400342034203453345534433443343E
:10207400453453345334463455344C344C34593445
:1020840020342034003459344F345534203441340E
:1020940052344534203442344C344F3443344B347A
:1020A4004534443400344E344F3420344C344F34AB
:1020B4004734533420345034523445345334453443
:1020C4004E345434003450345734443420344E3471
:1020D4004F34543420344334483441344E34473438
:1020E400453444340034203445344E345434453477
:1020F40052342034503441345334533457344F34ED
:10210400523444340034203445344E345434453449
:10211400523420344E3445345734203450345734F8
:10212400443400345234453445344E345434453404
:10213400523420344E3445345734503457344434B4
:102144000034573472346F346E346734203450346E
:1021540061347334733477346F34723464340034D8
:1021640041347434743465346D34703474342034CC
:10217400523465346D34613469346E34003444341B
:102184006F3477346E346C346F3461346434203497
:102194004C346F34673400344C344F344734533444
:1021A400203443344C34453441345234453444347B
:1021B4000034533455344334433445345334533462
:1021C400463455344C344C34593400345034573438
:1021D400443420344334483441344E344734453451
:1021E400443400344334683461346E3467346534C1
:1021F400203450345734443400345734413449344F
:102204005434203446344F3452342034003443346C
:102214006C3465346134723420344C346F34673434
:102224000034543452345934203441344734413422
:1022340049344E340034483448343A344D344D34FF
:102244003A345334533400345334653474342034BE
:10225400543469346D346534003456346934653427
:10226400773420344C346F34673400344C346F3456
:102274006734733420343A34003443344C344534B2
:102284004134523400344C344F34473453340034E2
:1022940034343434353435340034533445344334ED
:1022A40000344F344E340034433420340034473443
:1022B4003134003447343234003447343334003456
:1022C40047343434003443344C34003447344E34CB
:1022D4000034473452340034FF1B782983137F18A9
:1022E40083170008840A0319FF0A08007F087F394E
:0C22F4008A000408840A0319FF0A820013
:102320008316031306083F3886000800831603133C
:102330009F17831203131F14080064008001840A8E
:1023400004060319003404069E290A168A11ED2199
:102350000A168A1183160313111408000A168A112B
:10236000ED210A168A118316031311150800803413
:102370002534003400344F344E340034FF340534F7
:102380000534F2000A168A11ED210A168A11720824
:1023900083120313930008000A168A11AE210A164D
:1023A0008A110A168A11A5210A168A110800F2005C
:1023B00072088312031399000C1EDF29E029DC291F
:1023C0000C120800831603138801091189100A16DC
:1023D0008A1190260A168A1108008316031314190D
:1023E000F229F329ED2911081F39031DF829F929CC
:1023F000ED2908008312031312149214FA30831685
:10240000031392008C148312031312110800FF347B
:10241000FF34FF34FF340134003403340134023418
:102420000534FF3405340134F20101300A168A11F3
:10243000B6220A168A110430F7003D30F600F60B7A
:102440001F2AF70B1F2A242A0800F2009030720678
:10245000031D2B2A2C2A352AFF3083120313DB009D
:10246000FF30D300FF30D400A030080083120313E4
:102470001F151F193C2A3D2A392A1E08F50083160C
:1024800003131E08F4007508F3007408F200080036
:1024900000300A168A1169230A168A11F600760896
:1024A0007F39F6007608F30000300A168A11982268
:1024B0000A168A1108007E088A007F0882000A1620
:1024C0008A115B220A168A118000840A04087D069C
:1024D00003190034FF0A0319FE0A5F2A831203134B
:1024E000A400F20179080A168A11B6220A168A1186
:1024F000F201F20A8312031324080A168A11B62283
:102500000A168A110800F500F401751C882A892A28
:102510008D2A7208F3007308F4070310F20D0310FC
:10252000F50C7508031D952A962A852A740808005B
:10253000F4000A168A11A5210A168A11D0300A164B
:102540008A11C1210A168A1174080A168A11C1213A
:102550000A168A1173080A168A11C1210A168A11ED
:102560000A168A11AE210A168A110800F50072189F
:10257000BA2ABE2A831203130915C12A8312031330
:102580000911750888008914A630F300F30BC62AD8
:1025900000008312031389101B30F4009E30F300F7
:1025A000F30BD02AF40BD02A00000800F2000A1620
:1025B0008A11ED210A168A118316031391150A1642
:1025C0008A11ED210A168A11831203131308F300EE
:1025D0007203031DEC2AED2AF12A831603139116C8
:1025E000F42A831603139112111673080800F600DB
:1025F0007608F500052B0130F4007408F50701306A
:10260000F2070318F30A0030F30773088312031369
:10261000FF00720884000A168A116E210A168A11B8
:10262000F400750884007408831780000008031DF7
:102630001A2B1B2BFB2A0800312B7408FF00730890
:1026400084000A168A116E210A168A110A168A1146
:10265000D7210A168A110130F3070318F40A003053
:10266000F407740883120313FF00730884000A162A
:102670008A116E210A168A11003A031D402B412B44
:102680001D2B0800F6000A168A11A5210A168A11C8
:10269000A0300A168A11C1210A168A1176080A1674
:1026A0008A11C1210A168A1173080A168A11C121DA
:1026B0000A168A110A168A11AE210A168A111430D6
:1026C000F5007930F400F40B632BF50B632B682BCA
:1026D0000800F4000A168A11A5210A168A11D030C2
:1026E0000A168A11C1210A168A1174080A168A115B
:1026F000C1210A168A110A168A11CC210A168A11DA
:10270000D1300A168A11C1210A168A1100300A1620
:102710008A11D6220A168A11F5000A168A11AE21EC
:102720000A168A1175080800F4000A168A11A521F4
:102730000A168A11A0300A168A11C1210A168A11B6
:1027400074080A168A11C1210A168A110A168A11FA
:10275000CC210A168A11A1300A168A11C1210A1643
:102760008A1100300A168A11D6220A168A11F5003B
:102770000A168A11AE210A168A1175080800F2019C
:1027800078080A168A11B6220A168A11DD2BF20180
:10279000F20A7708FF00760884000A168A116E2173
:1027A0000A168A110A168A11B6220A168A110130EF
:1027B000F6070318F70A0030F707770883120313A8
:1027C000FF00760884000A168A116E210A168A1103
:1027D000003A031DEC2BED2BC72B080083120313CB
:1027E000A0000E2C7808FF00770884000A168A11D2
:1027F0006E210A168A11F30020080A168A11422354
:102800000A168A110130F7070318F80A0030F80792
:102810000130F900790883120313A0077808FF003C
:10282000770884000A168A116E210A168A11003A66
:10283000031D1B2C1C2CF22B08008312031398176A
:1028400018162608AA002708AB002808AC0029089B
:10285000AD0004300310AA0DAB0DAC0DAD0DFF3E65
:10286000031D2A2C2D08F5002C08F4002B08F3007A
:102870002A08F2000130F9003130F8002D30F7005D
:102880000030F6000A168A1198270A168A11720873
:10289000FF3E8316031399008C160800F7005A2C8C
:1028A0000130F4007408F7070130F2070318F30A47
:1028B0000030F307730883120313FF0072088400CB
:1028C0000A168A116E210A168A11F400770884000C
:1028D00083170008F50074087502F6007608031DDA
:1028E000722C732C7A2C770884000008031D792C35
:1028F0007A2C502C7608F200F301F21BF303080047
:102900008312031394152608AA002708AB00280891
:10291000AC002908AD0002300310AA0DAB0DAC0DC0
:10292000AD0DFF3E031D8C2C2D08F5002C08F40086
:102930002B08F3002A08F2000130F9003130F800CA
:102940002D30F7000030F6000A168A1198270A1673
:102950008A117208FF3E8316031393008312031338
:10296000941608000A168A11E2210A168A1100300C
:1029700083120313A9000130A8008630A700A030FD
:10298000A6000A168A1180240A168A110A168A11CC
:1029900048220A168A110A168A1190210A168A11EB
:1029A0000A168A1196210A168A110A168A11FA2124
:1029B0000A168A11003083120313A9000030A80000
:1029C0002530A7008030A6000A168A111D240A1699
:1029D0008A118B170B170800F700192D7708840050
:1029E000831300080319F52CF62C022D72088400BD
:1029F0000008F50077088400000875060319012D0A
:102A0000022D112D720884000008F500770884005B
:102A10000008F60075087602F200F301031CF303C8
:102A2000292D0130F5007508F7070130F50075080C
:102A3000F2070130F3020030031CF403F402730ABE
:102A4000031D262D740A031D262D272DEE2CF201C1
:102A5000F3010800053083120313A2000130A10026
:102A60002108DB070A305B06031D372D382D3B2D6F
:102A7000DB01CA01CA0A0A30F2005B080A168A1191
:102A800083220A168A11831203132207A200C93077
:102A9000F7000030F80022080A168A11EE230A1601
:102AA0008A11831203135408803AFF0080307F029A
:102AB000031D5C2D0930530203185F2D602D682D16
:102AC000013083120313D3070318D40A0030D4074C
:102AD000080083120313A201A301760877040319E7
:102AE000722D732DAA2DA101A10A812D0130031091
:102AF000F60DF70DFF3E031D772D0130A0002008D5
:102B0000A107F71F842D852D762D01300310A20D0E
:102B1000A30DFF3E031D862D77087902031D922D1C
:102B200076087802031C952D962D9D2D7608F802C7
:102B30007708031CF903F902221401300310F70C83
:102B4000F60CFF3E031D9E2D0130A102031DA92D91
:102B5000AA2D852D2308F7002208F600080083120D
:102B600003138C1CB42DB52DDF2D013083160313F8
:102B7000B1070318B20A0030B207E2303106043060
:102B800003193206031DC52DC62DDD2DB101B2017D
:102B9000831203134B080319CE2DCF2DD12D0130F5
:102BA000CB024B08031DD52DD62DDD2D5C08031956
:102BB000DA2DDB2DDD2D0130DC0283128C108C1E12
:102BC000E22DE32DEF2D981CE62DE72DE82D981032
:102BD0001A0883160313BB00831203138C127108A7
:102BE0008A00700E8300FE0E7E0E0900831203130E
:102BF000A0002008A100202E0130F4020030031CA8
:102C0000F503F5027308F7007208F600F20A0319DB
:102C1000F30A7708FF00760884000A168A116E21ED
:102C20000A168A11F800210884000130A1077808EB
:102C3000831380000008031D1E2E1F2E202E2F2E12
:102C400074087504031D252E262EFC2D2F2E210819
:102C50008400831380010130F6007608A10701305B
:102C6000F4020030031CF503F502740A031D3C2E28
:102C7000750A031D3C2E3D2E272E08000A128A15C8
:102C800074210A168A11C030F90083160313540800
:102C90000A168A116E220A168A11C130F9008316AB
:102CA000031355080A168A116E220A168A11C230B9
:102CB000F9003A300A168A116E220A168A11C330B8
:102CC000F9008316031356080A168A116E220A1693
:102CD0008A11C430F9008316031357080A168A11A3
:102CE0006E220A168A11C530F9003A300A168A1186
:102CF0006E220A168A11C630F9008316031358088B
:102D00000A168A116E220A168A11C730F900831634
:102D1000031359080A168A116E220A168A1108002E
:102D2000C330F700CD30F600F60B942EF70B942E3F
:102D3000F20133300A168A11B6220A168A111B30A4
:102D4000F7009E30F600F60BA32EF70BA32E000023
:102D5000F20133300A168A11B6220A168A11A630F9
:102D6000F600F60BB12E0000F20133300A168A117C
:102D7000B6220A168A11BC2EBD2E0000F201383090
:102D80000A168A11B6220A168A11A630F600F60B28
:102D9000C72E0000F20101300A168A11B6220A1667
:102DA0008A110430F7003D30F600F60BD52EF70BF4
:102DB000D52EDA2EF2010C300A168A11B6220A1626
:102DC0008A11A630F600F60BE32E000008000A1266
:102DD0008A1574210A168A11D430F2000030F300EB
:102DE0000630F4000030F500C9300A168A11F625C5
:102DF0000A168A11831203132408F2002508F3002F
:102E00000230F4000030F500CF300A168A11F625A2
:102E10000A168A110A30F2000030F30083120313FD
:102E20002608A700A8012708F4002808F5000A12C0
:102E30008A1518200A168A117208303E8316031369
:102E4000D1000A30F2000030F30083120313260889
:102E5000A700A8012708F4002808F5000A168A111F
:102E60003F270A168A117208303E83160313D200D8
:102E7000D3010A168A112A250A168A110800F801B8
:102E8000F51F432F442F4B2FF409F509F40A0319BA
:102E9000F50AF801F80AF31F4E2F4F2F542FF209AD
:102EA000F309F20A0319F30A720873040319592F7C
:102EB0005A2F892FF701F70A682F01300310F20DFE
:102EC000F30DFF3E031D5E2F0130F6007608F70775
:102ED000F31F6B2F6C2F5D2F73087502031D722F6C
:102EE00072087402031C752F762F7C2F7208F4026F
:102EF0007308031CF503F50201300310F30CF20C08
:102F0000FF3E031D7D2F0130F702031D882F892FFF
:102F10006C2F780803198D2F8E2F932FF409F50944
:102F2000F40A0319F50A7508F3007408F2000800A2
:102F3000003083120313A4000030A3000030A2006D
:102F40000030A10075087404730472040319A92FDA
:102F5000AA2FF72FA501A50ABA2F0130A000031050
:102F6000F20DF30DF40DF50DA00BAF2F0130A00005
:102F70002008A507F51FBD2FBE2FAD2F0130A000E3
:102F80000310A10DA20DA30DA40DA00BC02F750859
:102F90007902031DD52F74087802031DD52F7308FD
:102FA0007702031DD52F72087602031CD82FD92F64
:102FB000E82F7208F6027308031C730FF7027408F7
:102FC000031C740FF8027508031C750FF902211415
:102FD00001300310F50CF40CF30CF20CFF3E031D52
:102FE000E92F0130A502031DF62FF72FBE2F24086D
:102FF000F5002308F4002208F3002108F20008007D
:02400E00FB3F76
:00000001FF
